:040000006F20A0527B
:100004000000000000000000920B0000940B0000B0
:10001400000000002825000000000000000000008F
:100024002825000028250000000000000000000032
:100034002825000000000000A40B000000000000C0
:100044002825000028250000282500002825000078
:100054002825000028250000282500002825000068
:100064002825000028250000282500002825000058
:100074002825000028250000282500002825000048
:100084002825000028250000282500002825000038
:100094002825000028250000282500002825000028
:1000A4002825000028250000282500002825000018
:1000B4002825000028250000282500002825000008
:1000C40028250000282500002825000028250000F8
:1000D40028250000282500002825000028250000E8
:1000E40028250000282500002825000028250000D8
:1000F40028250000282500002825000028250000C8
:100104000000000028250000282500002825000004
:1001140028250000282500002825000028250000A7
:100124002825000028250000282500002825000097
:100134002825000028250000282500002825000087
:100144002825000028250000282500002825000077
:1001540028250000060F000028250000282500009F
:100164002825000028250000282500002825000057
:100174002825000028250000282500002825000047
:100184002825000028250000282500002825000037
:100194002825000028250000282500002825000027
:1001A400000000000000000000000000000000004B
:0C01B4000000000000000000000000003F
:1001C0003D432A876373C3029377F700BDEFADE524
:1001D000937606FF3D8ABA960CC34CC30CC74CC736
:1001E0004107E36BD7FE11E28280B306C3408A0663
:1001F0009702000096966780A6002307B700A30623
:10020000B7002306B700A305B7002305B700A30472
:10021000B7002304B700A303B7002303B700A3026A
:10022000B7002302B700A301B7002301B700A30062
:10023000B7002300B700828093F5F50F93968500F1
:10024000D58D93960501D58D61B7939627009702BA
:10025000000096968682E78086FA9680C1171D8FE9
:100260003E96E374C3F8A5B783C73185858B1387A2
:10027000318599CFB737024083C6274E93E63600C3
:100280002381D74E8347070093F7E70FA389F184B3
:1002900083470700898B99CFB737024083C6774ED3
:1002A00093E63600A383D74E8347070093F7D70F13
:1002B000A389F1848280138781498346170193873C
:1002C0008183E20694C3834627019043C206B29617
:1002D00094C3834637019043A206B29694C39043D9
:1002E00083464701B29694C383466701938701848E
:1002F00003477701A20694C39443369798C3984363
:10030000260798C3239E0182A38801842388018441
:1003100023840184828003C7814993075005938613
:100320003185631FF73803C7914993073005631977
:10033000F73803C7A149930720046313F73803C7AD
:10034000B14993073004631DF73683C7C14923823F
:10035000F18483C7D149A382F18483C7E149238310
:10036000F18483C7F149A383F18483C7314AE2074B
:1003700023A0F184138701840C4383C7214AC20759
:10038000AE9723A0F1840C4383C7114AA207AE970E
:1003900023A0F1840C4383C7014A13868149AE9799
:1003A00023A0F1841C4399CB8307C60063D60704BE
:1003B00083C7060093E71700A389F18483C706006B
:1003C00093E74700A389F1849305300283C7714AFC
:1003D000638FB71063E7F508C9456384B70E63E21E
:1003E000F5026389072A0D476387E7269547A388A7
:1003F000F184930700024DAC83C7060093E7270002
:1004000065BFED456380B70EF945638DB70CE945CF
:10041000E39EB7FC83C72185858B638B071A144342
:10042000B14763F4D70023A0F184814797350000DA
:100430009385854E144363E1D7189387C18498430D
:100440006183238EE14898434183A38EE14898431A
:100450009C432183238FE148A38FF14823AAC184C1
:1004600082809305A002638EB70263E0F5029305D4
:1004700050026381B70E13078002E399E7F683C742
:100480002185858B638607143DB59305F002638B48
:10049000B7049305A0056388B7141307E002E39738
:1004A000E7F483C72185858B63840712411106C653
:1004B0001935B24017050020130545F341016F10AF
:1004C000A06818439307400263F4E70023A0F18477
:1004D00097070020238807B297070020938787B2E9
:1004E00023AAF184A3880184238801844DA283C7B1
:1004F0002185858B638E070C1443B14763F4D700C5
:1005000023A0F1848147973500009385A5411443CA
:1005100063E6D7029387C18498436183238EE148C1
:1005200098434183A38EE14898439C432183238FC2
:10053000E148A38FF14823AAC1846DB73385F50044
:1005400003450500B306F60085072380A60093F750
:10055000F70F75BF83C72185858BBDCB1443A1479A
:1005600063F4D70023A0F18481479385C1811443AC
:1005700063E8D7021387C1841C43FD17E183238CF2
:10058000F1481C43FD17C183A38CF1481C43FD17A0
:10059000A183238DF1481C43FD17A38DF14861BF52
:1005A0003385F50003450500B306F6008507238073
:1005B000A60093F7F70F65BF3385F50003450500E7
:1005C000B306F60085072380A60093F7F70F9DB5C5
:1005D0008947A388F1849307A0032388F184854782
:1005E0002384F18451B183C6914A9307F003639E3B
:1005F000F6041443C14763F4D70023A0F184814774
:100600009735000093854530144363E4D702938700
:10061000C184984361832380E14A98434183A38046
:10062000E14A98439C4321832381E14AA381F14A13
:1006300035B53385F50003450500B306F60085079B
:100640002380A60093F7F70FC1B79547A388F184DD
:100650009307000259B793070007239CF14883C70B
:100660001185238DF148A38D0148B707000A23AEF9
:10067000F14823A0014A83C701852382F14AA3825E
:10068000014A2393014A2394014A23AAC184238463
:100690000184828083C72185858BE39507E48947A0
:1006A000A388F1849307A0032388F18485472384DA
:1006B000F18483C7060093E71700A389F1841DB76F
:1006C0009547A388F184930700022388F184894722
:1006D0002384F18483C7060093E71700A389F1847C
:1006E00083C7060093E72700C9BF938701841706D5
:1006F00000200356A6A7944317070020130707A757
:100700006375D60203560700035707009C43420651
:100710004182998F23A0F184938741858C434206BF
:100720008546418209456F00606B904323A0018498
:1007300083C7318593F7E70FA389F184F1BFA389BC
:100740000184B757425393858149938757359CC19C
:1007500083C741842382F50083C75184A382F500B7
:1007600083C761842383F50083C77184A383F50065
:1007700023A4050083C78184854635460945238621
:10078000F500A9AD411122C413848183084026C21B
:1007900093848129A68506C6EF00D07E97050020A8
:1007A00083D5C59C83D7C183B385F50285461706DB
:1007B00000200356A69B0945A6950D2583D7C18326
:1007C0008507239EF182938701849706002083D6B4
:1007D000E6999843158F23A0E18483D6C18313073C
:1007E000002017060020035666983347C702639817
:1007F000E600239E01821840050723ACE1829C435A
:1008000099E783C7318593F7E70FA389F184B24055
:10081000224492444101828083C73185858B89CBF4
:1008200003C7714A930780026313F700A1BF75BD28
:100830009387318583C70700918B91C309B7828065
:10084000411122C41384C183835704000357040059
:100850009707002083D787914AC0B387E70213899F
:100860000188AA85170600200356469026C206C6B0
:10087000938401843305F900EF1070568357040008
:100880008507239EF182170700200357278E9C407F
:10089000998F23A0F1840357040093070020970643
:1008A000002083D6A68CB3C7D702639BE7021384CC
:1008B0008183084017060020130646B3CA85EF104F
:1008C00020199C4081EB83C7318593F7D70FA3890B
:1008D000F184B535239E01821C40850723ACF1824B
:1008E000B2402244924402494101828083C731854B
:1008F000898B91C3B1B7FD47639AF506411122C4B4
:1009000006C62A88138431858147938581497D47AE
:10091000B306F80003C60600B386F50085072380FA
:10092000C600E397E7FEEFF01F9F83470400898B23
:1009300095EB83470400858B99CF03C7714A9307D2
:1009400080026316F7002244B240410125BD2244D3
:10095000B240410159BB83C7818489E72244B24038
:100960004101F1BBB24022444101828082800111E9
:100970008545414506CE02C202C402C6EF10F020F2
:10098000930700082312F100930780043EC64C0031
:100990008947371501403EC4EF10C078F240056129
:1009A0008280370510008280AE87AA853E856F1051
:1009B0001043411122C4138441800C4006C626C254
:1009C000FD576380F504130600101385814BEF106B
:1009D000B03E0DC59304800873B004800F10000072
:1009E000EF1080600840EF10E06208409385814B73
:1009F000EF102065EF10206173A00480FD5723A243
:100A0000F180B2402244924441018280B7570008ED
:100A1000636AF500B78707083307C500938707E0C7
:100A200063F9E700AA8517350000130565F36F1019
:100A300070469387418001119C434AC82E89937563
:100A400005F022CC26CA06CE2EC6B2842A84638C38
:100A5000B7008537B245130600101385814B23A2DA
:100A6000B180EF10D037A285173500001305C5F10E
:100A7000EF1050421375F40F6244F2402686CA8587
:100A8000D24442499387814B3E9505616F103035C2
:100A9000411106C622C4EF10205537850708FD55C1
:100AA0007115EF10804EB7270240984BA1660145A3
:100AB000558F98CB984B37E400E01367070898CB25
:100AC000492CB70720002324F4180F100000130549
:100AD0002003EF10803617350000130565E5EF1091
:100AE000104D37150140EF10005C05658145130579
:100AF0000580EF10B00713054006EF100034916732
:100B00002320F4102320F420B240224441018280AB
:100B1000411117350000130565E206C6EF10304994
:100B2000B2404101B5B701119305000837150140E6
:100B300022CC06CEEF10206B2A8419C9B7570008C3
:100B40008043B727C61C938777CC3E94333480000C
:100B5000B787070883A5C7FFC167FD176396F5022E
:100B60002EC6EF106048B245B78707081385C7FF48
:100B7000EF10A041B7270240984BA166558F98CB44
:100B8000984B1367070898CB2285F24062440561B1
:100B9000828001A0B707EFBE37E700E09387070820
:100BA0003CC701A01568028801A083C7A18693F7FE
:100BB000F7072385F18683D62186130700109387D4
:100BC00021866397E602373702408346674093F6F3
:100BD000C60F2303D7408346674093E626002303CE
:100BE000D7408347074093E707082300F7408280F8
:100BF00003D7070093060020639FE60037370240C3
:100C00008346674093F6C60F2303D7408346674069
:100C100093E63600E9B703D70700930600306392E6
:100C2000E602B737024003C767401377C70F238335
:100C3000E740A38107400947A38DE74C238DE74C8C
:100C4000828083D70700130700406310F706373709
:100C50000240834667409307074093F6C60F23037D
:100C6000D7408346674093E616002303D740834668
:100C7000074093E606082300D74037070400210702
:100C800098CBD84B1367F70FD8CB17F7FF1F130775
:100C9000A739F8D3130750032392E70E130700FD7B
:100CA0002380E70E09472385E7008280411105452F
:100CB00006C6EF1060780145EF1080720545EF1011
:100CC00080700545EF1060730545EF10A074B240C9
:100CD000056585451305058041016F1020693707BB
:100CE0000900B7370240150723A8E740130700049F
:100CF000239CE748130700202390E74A2392E74A02
:100D0000170700201307076223AEE7401387815BB4
:100D100023A0E7461387817B23A4E742239C074C4B
:100D20000947238DE74CA38D074C2390074E238161
:100D3000E74EA383074E170600201306A6628147DD
:100D40004147B306F600238006008507E39BE7FED4
:100D50008280411122C406C626C23734024031C9FE
:100D600099472300F4402945EF10C0098347044008
:100D700093F7B70F2300F440C147A300F440930753
:100D800090022300F440930770022301F440813F56
:100D9000834704403707200093E707012300F4400E
:100DA000B7E700E023A4E710B24022449244410197
:100DB000828099472300F4402945EF10A00483471F
:100DC00004403707200093F7B70F2300F440B7E73C
:100DD00000E023A4E7180F100000F9B79307F5FF10
:100DE00013F8F70F3947636D071137370240832E29
:100DF0000741054EB31FAE0093FEFE0F33FFFE0109
:100E0000854863000F1041114AC0170900201309DB
:100E10006955B308A90006C622C426C203CF08003C
:100E20008548137F1F00631D0F06032887412E830B
:100E3000B2841378F80F3378F8012A846300080A23
:100E400041053315AE003375D50139E98A0713051D
:100E5000E74D3E95034805001378F80FA1EE13788F
:100E60008800631608041307C745BA9723A06700D4
:100E700022998347090037950010130565D393E73E
:100E800017002A942300F9000A04231094008347D2
:100E90002400814893F7C70F2301F4002301F400D5
:100EA000B2402244924402494685410182801307A0
:100EB000074265BF8548E395C6FF13788800631C29
:100EC00008001307C745BA978843B70700203E9527
:100ED000EF10E07071BF13070742F5B781EAB797CB
:100EE0000010938767D1AA978A0749B78548E39985
:100EF000C6FBB7970010938767D1AA978A07E9B70F
:100F00008548468582801D71A2CE37340240A6CC2A
:100F1000CACACEC882E686E48AE28EE012FE16FCD9
:100F20001AFA1EF82AF62EF432F236F03AEE3EECB9
:100F300042EA46E872E676E47AE27EE01304044090
:100F40000347A4008347B4001377F70F9376270075
:100F50006383061C93F7F70F13F70703630D07125C
:100F600093060002631AD70093F7F7036388E70438
:100F7000130720026386E70EB7370240094723852F
:100F8000E740938707407644E6445649C6493660B1
:100F9000A660166186617272E2725273C273327514
:100FA000A275127682767267E2675268C268326E04
:100FB000A26E126F826F25617300203083D7418645
:100FC0001389418681E7A147A30DF40C83C761868D
:100FD00093F70706B5E383C7018615476386E706DF
:100FE0001947639AE706835709001307F0031304B0
:100FF00000046366F70003540900420441809387AC
:10100000C18684432286170500201305A531A685D5
:10101000EF10E05C83570900A294818F2392F18640
:1010200023A69186B7370240239C874C03C7A74D60
:1010300013478700238DE74C83C7A186E207E1872A
:10104000E3DC07F29D360DBF03C78185B737024049
:10105000A381E740D5B7B7370240239C074CE9BFCF
:101060008347240E93F7C70F93E727002301F40E5D
:101070008347240E93C787002301F40E97070020AF
:1010800083C7672E93F7E70F17070020230DF72C70
:10109000EFF08FF8D5B513F7F70339C38D46E31D8D
:1010A000D7EC93F70704E38907EC8355C400834723
:1010B000740E1385817B93C78700A303F40E8347C7
:1010C000740E93F7C70F93E72700A303F40EEFF016
:1010D000FF818347740E93F7C70FA303F40E69BD16
:1010E0000357C40093F7070442074183E38607E8E8
:1010F0009387618683C7070083D74186998F2392A0
:10110000F18683D74186E39907E6231C040CA147A7
:10111000230DF40C95B59377070263800758A94710
:10112000230DF40CA30DF40C9707002083C7871F31
:101130002383F186170700200347D71E2380E1860B
:10114000170700200357671E2392E1861707002028
:101150000357671D2394E186170700200357C71C18
:101160002391E18603C7618613770706938701867B
:101170009384618649CB03C704009306000213776A
:1011800007066317D71203C707009306E00F639B98
:10119000E604970700202387071897070020938706
:1011A000671823A6F18683C7040013874186E207E8
:1011B000E18763D1074C835607009307000463E679
:1011C000D70083570700C207C183035707001D8F4D
:1011D0002392E18637370240231CF74CA147230DA9
:1011E000F74CF1A883C707001307F00F6312F70C41
:1011F000A38801842388018423840184A389018432
:1012000023A001844DB783C707002D4793F7F70F3D
:101210006360F70A17270000130787788A07BA97D1
:101220009C43BA97828783D78186A183FD1793F762
:10123000F70F1947636BF712172700001307477959
:101240008A07BA979C43BA9782879737000093879B
:10125000A79823A6F1869737000083C7E797014434
:1012600083D641861387418663F4D7002392F186A3
:10127000835707009306F0031309000463E7F600A1
:10128000035907004209135909019387C18683A9AD
:1012900007004A86170500201305C508CE854E991C
:1012A000EF10E03323A621879307F00FE31DF4EE40
:1012B000B73702402D47238DE74CA38DE74CB73756
:1012C00002401307000265B9B73702409387074011
:1012D00083C7870005478D8B6394E704A38FF18450
:1012E00093070020239EF18417F7FF1F2310F7E8D0
:1012F00003C7F1858547631AF70297370000938784
:10130000A78B23A6F1869737000083C7178BA20708
:10131000173700000347678ABA97C207C18381B7AE
:10132000A38F01849307000475BF9737000093874C
:10133000A78623A6F1869737000083C71786A207E2
:101340001737000003476785C1BF9387818683D71E
:101350000700054793F7F70F6384E70299CB094726
:10136000638BE7020D476383E70481471304F00FA3
:10137000C5BD9387418223A6F18683C74182C5B547
:10138000973700009387878623A6F186973700005A
:1013900083C7C785E9B5973700009387278623A6BB
:1013A000F1869737000083C7678555BD97370000E2
:1013B0009387078723A6F1869737000083C7478660
:1013C00079BD973700009387E78423A6F186973786
:1013D000000083C7278461B503C7F1858547631182
:1013E000F704172400000344547B9727000083C7A9
:1013F000C77A22043E941306E4FF972500009385E4
:10140000C57917F5FF1F130545CDEF10401D97F760
:10141000FF1F938767CC23A6F18693170401FDBDB8
:101420009387F18583C7070093F7F70F9DFF172474
:101430000000034494789727000083C707782204AC
:101440003E941306E4FF972500009385057717F572
:10145000FF1F130585C6EF10801897F7FF1F9387AE
:10146000A7C555BF83D78186238CF1842DBB83C745
:101470009185170700202307F7EA03D741868547A0
:10148000E3F3E7D22392F18639BB83D78186A38C1D
:10149000F1848547238DF18439B383C70400FD8B24
:1014A00099EF83D7818693F7F70F0547E392E7E03B
:1014B00083C7E18593F7E70F238FF184EDB103C76D
:1014C000040089477D8BE315F7DE83D7818693F788
:1014D000F70FE39F07DC83D62186B737024093F6E8
:1014E000F60F0D46938707406380C6021306200857
:1014F000E390C6DC2381E70E83C73185918BE384BB
:1015000007CAEFF0CFA345B1A383070EF5B783C792
:101510000400FD8BBDEF83D7818693F7F70F054756
:10152000639FE7009727000083C7776793F7070259
:10153000E38007D883C7E18593E71700B5BF93879A
:10154000818683D70700094793F7F70FE392E7D621
:1015500083D6218613070010938721866384E602D1
:1015600003D7070093060020638EE60003D7070029
:10157000930600306388E60083D707001307004016
:10158000E313F7C283C7A18693E707082385F18693
:1015900019B983C704000947FD8BE396E7C083D7D9
:1015A000818693F7F70FE39007C003D72186B737FB
:1015B00002401377F70F8D4693870740630DD700DE
:1015C00093062008E316D7CE03C7270E136737000C
:1015D0002381E70EC9BE03C7770E13673700A383C5
:1015E000E70ED1B697070020238E07D279B597076B
:1015F0000020239907D283C704000947FD8B639D10
:10160000E70483D721863737024093F7F70F8D46DB
:1016100013070740638CD702130620081304F00F4A
:10162000639EC7008347270E01448D8B6398D700C4
:101630008547170700202307F7CE014403D74186CB
:101640008947E3F3E7C62392F186B9B90347770EDA
:101650000D8BE314F7FEE9BF83C704000144FD8B43
:10166000F1FF83C7E185858BF1DB97070020238B92
:10167000E7CAE9B703570700B73702409387074027
:101680004207418319E7239C070C2147238DE70C70
:101690003DB12147A38DE70C1DB19377170095C38A
:1016A000A38C0184238C0184238F0184238D0184E6
:1016B000A3010400EFF0AFE285472305F4006FF0CB
:1016C0009F8C937747009DCF91472305F4002945D0
:1016D000EF004073034794009387E185118B19CB8A
:1016E00003C7070013672700238FE18483C7070020
:1016F0006FF07F8983C7070093F7D70F238FF1849B
:101700006FF07F882305E4006FF0FF87411106C664
:10171000EFF02FA923A8A1862181260597F7FF1FA7
:1017200023A0A79897F7FF1F9387879397F5FF1F2D
:10173000938585970947904B239AE700E1079376B5
:10174000F61FB336D0002582B29636974207418302
:101750009306F7FF239FD7FEE39FB7FCB2404101FA
:101760008280814763C3C70082800387050001CB65
:101770008505B306F5002380E6008507E5B7130766
:101780000002C5BF797122D42E8426D21306002010
:10179000AA848145228506D64AD04ECE52CC56CA5E
:1017A0005AC85EC662C466C2EFE09FA19DEC1306F4
:1017B000E00397250000938565232285EF003062C2
:1017C00093075005230FF41E9307A0FAA30FF41EEE
:1017D000B250225492540259F249624AD24A424BC0
:1017E000B24B224C924C456182809307402063E3C8
:1017F00097089387F4FF130710106374F70093871B
:10180000D4EF9396870097F5FF1F83D5C58985058B
:101810002286138806103687130517006369B704FC
:10182000231006002A870906E318A8FE99E7E15766
:101830002310F400FD572311F40017F7FF1F1307BF
:10184000278217F6FF1F130626869305F00F7D5596
:101850008357670163E9D700958F63E6F500860734
:10186000A2972390A7006107E314E6FE95B7231023
:10187000A6004DBF9307802063E8970C9307502084
:10188000E398F4F422852D46972500009385B5183A
:10189000C93D93078002A305F4009304040217E9ED
:1018A000FF1F1309E97B13040408130C4006130BF4
:1018B0005003930B9007130A70F9930AC005938C99
:1018C0000187835949012D46CA852685593DA3863E
:1018D00084018327C900238D340193D9890023878C
:1018E0006401A387740123884401A38854012389D8
:1018F0004401A3895401238A0400A38A0400238B92
:101900006401A38B7401238C4401A38C5401A38D27
:10191000340195C78327090113D78700238EF4006C
:10192000A38EE40013D70701E183238FE400A38F84
:10193000F400938404026109E39584F851BD83A700
:101940000C00A183A607C9BFC16793878710E3E195
:1019500097E817E7FF1F1307A770138574DF814708
:10196000938494DFBA858D460356470163E6C4002D
:10197000035667016377960085076107E396D7FEF4
:101980008947E146B386D7020946AE9603D746019A
:10199000198D130725006382C704904A2607E3794F
:1019A000C7E2198E9306002063F4C60013060020D8
:1019B000E146B387D70222852254B250925402598D
:1019C000F249624AD24A424BAE97CC47B24B224CC4
:1019D000924CBA9545616F009040B7070800938715
:1019E00027053E95938701879C432205E372F5DE28
:1019F000B746320A93865665A18314C01CCCB756ED
:101A00005D9E930700101CC893867615896754C0A5
:101A10001CC4B776B10AB757420A938606F3938778
:101A200037B5232ED41E58C848C45CCC9305040295
:101A30002254B25092540259F249624AD24A424B5D
:101A4000B24B224C924C1306001045616FE0DFF55B
:101A50009841B747320A938757657D556315F70E4E
:101A6000D841B7575D9E93877715631EF70C03A780
:101A7000C51FB777B10A938707F36316F70C9C4528
:101A8000139727016351070CD84DB757420A938724
:101A900037B5631AF70AB787070883A7C7FF41114D
:101AA00022C426C206C6B2842E8495C3352BB787BE
:101AB00007081385C7FF8145C929B7270240984BFE
:101AC000A166558F98CB984B1367070898CB1048A1
:101AD000484493050402EFE07FF31C4C81EBB240D5
:101AE0002244924413050020410182809440638A7D
:101AF000D7001167130737066363F70091C2FD57DC
:101B00009CC05C48116713073706E36AF7FC93F63D
:101B100077008D830547A6973317D70083C69700B4
:101B20001377F70F33F6E60001EAD040558FA38410
:101B3000E70093071600DCC0D8409C40E361F7FA49
:101B4000EFE03FE769BF8280834785009DE31C414A
:101B50008DC303C7818019C3238401805841636A00
:101B6000F700411106C6EFE0DFE4B24041016FE04B
:101B70003FFA8280411106C622C44D228524716538
:101B800013050520F5249387C1808C431725000099
:101B90001305C5F713840183EF00D02F4D26AA85C6
:101BA00017250000130585F7EF00D02E9167938766
:101BB000470623A8F18217250000130525F7930790
:101BC0000020239AF182EF00903E0C401725000080
:101BD000130505F9EF00102C83D54183172500006C
:101BE0001305C5F9EF00102BEFE07FD8EFE0BFF34E
:101BF00019C1EFE0FFE9193E1C40014523A6F1841D
:101C000083C7218593E717002389F184EFF06F9450
:101C1000130540061D24EFF06F890545EFF06F9323
:101C200001A0B71702409843B706FFF041111367B0
:101C3000170098C3D84337060200758FD8C398435E
:101C4000B706F7FEFD16758F98C39843B706FCFFDD
:101C5000FD16758F98C3D843B70601FFFD16758F23
:101C6000D8C39843B70600ECFD16758F98C33707A5
:101C7000FF0098C723A6070202C402C69843C166A4
:101C8000558F98C3B716024005679C42F18F3EC638
:101C9000A24785073EC4B24781E7A247E397E7FE24
:101CA000B71702409C431397E70063570706854721
:101CB0003EC632478547631FF704B7170240D84333
:101CC000B706C1FFFD16D8C3D843D8C3D84313679E
:101CD0000740D8C3D843758FD8C3D843B706290067
:101CE000558FD8C39843B7060001558F98C39843C2
:101CF00093166700E3DD06FED843B7160240719BDA
:101D0000D8C3D84313672700D8C32147DC42B18B1F
:101D1000E39EE7FE4101828002C661BFB716024022
:101D2000DC4211471386C180B18B6385E7002147F0
:101D3000638AE702B7177A009387072023A6F1800A
:101D4000B7170240DC4317E7FF1F1307E7359183FE
:101D5000BD8BBA9703C707001C42B3D7E70023A681
:101D6000F1808280D842D442C16749833D8BFD8E89
:101D70009307270005CB3D476389E7024147638905
:101D8000E702C54501476393B700C1478DE6B746F3
:101D9000024083A60680C18A95C6B7167A0093864C
:101DA00006202DA00147C947D5B70547B547F9BF5C
:101DB0000147BD47E1BFB7160240D4429395E60004
:101DC000E3DD05FCB7163D0093860690B387D70286
:101DD00023A6F18035D71C4285838DB79387C180B8
:101DE0009C4337177A0013070720B3D7E70293F70E
:101DF000F70F238BF1861307803EB387E702239A00
:101E0000F1868280B7F700E0D8438146799BD8C33A
:101E100003C761873306A70290CBD4CB98431367DF
:101E2000070198C398431367170298C3D843058BDB
:101E300075DF9843799B98C38280B7F700E0D84359
:101E40008146799BD8C303D741873306A70290CB3D
:101E5000D4CB98431367070198C3984313671702BD
:101E600098C3D843058B75DF9843799B98C38280CC
:101E7000797122D42A8411658545110506D631234E
:101E8000930700202312F100371501408D473EC40F
:101E90004C00E147130505803EC6692422C837443B
:101EA0000140B70708000C08130504803ECC02CAA5
:101EB000231E0100692B1305048085452D2DB2508A
:101EC000225445618280011126CAB744014022CCC8
:101ED0004AC84EC606CEAE89328901449384048036
:101EE000634A2401F24062444A85D2444249B249DD
:101EF000056182809305000426850D2565DDB38785
:101F000089008385070026850504C205C181112546
:101F1000C1BF938701819C4317F7FF1F1307C74574
:101F20003E95636CE500176700201307A78D636675
:101F3000A70023A8A1803E858280FD57EDBFB7F79B
:101F4000FF1F03A547708280372702405C47054585
:101F5000858B91E748474189133515000D0582802F
:101F6000411122C426C206C62A848544F13F631863
:101F7000950019E0154529A0C13F7D14CDBF7DD83E
:101F8000B240224492444101828079714AD02A8928
:101F9000156526D24ECE06D622D4AE8402C691490D
:101FA000C137631C3503372402401C48156593E78D
:101FB00017001CC893970401C1832310F9004D3703
:101FC000631A350109094AC6B247C18015652390D5
:101FD000970079371C48F99B1CC8B2502254925480
:101FE0000259F24945618280B7066745B72702402A
:101FF000938636123797EFCDD4C31307B79AD8C359
:10200000D4D3D8D38280372702401C4BA166D58F0A
:102010001CCB8280B7270240984BB706020013758D
:1020200005F0558F98CBC8CB984B1367070498CB16
:10203000D847058B75FF984B8176FD16758F98CB29
:102040008280372702401C4BC166137505F0D58F7F
:102050001CCB5C47858BF5FF372702405C47898B9B
:10206000F5FF3727024013060010B386F50003A8DA
:102070000600B306F50023A006015447898AF5FE41
:102080009107E394C7FE1C4BB7062000D58F1CCBED
:10209000B7270240D847058B75FF984BC176FD16D0
:1020A000758F98CB82804111B717014006C6138700
:1020B0000780631AE50085451145FD2481451145DA
:1020C000B2404101D5A4138707C06318E5008545D8
:1020D0002145D92C81452145E5B76318F500854593
:1020E0004145D92481454145E1BF93870740631AA3
:1020F000F500854513050002452C814513050002B6
:10210000C1B7B727014093870780631AF50085455B
:1021100013050004512C81451305000455B7B24046
:10212000410182809C4513F7070113F8F70001C7AE
:10213000D8413368E80083D5050013F7F50F39C39C
:1021400018418146854E3D4F930F800293028004D3
:10215000214E3396DE00B3F8C50063111603939841
:10216000260033131F011343F3FF3377E300B31843
:10217000180133E7E800639FF70550C98506E39A25
:10218000C6FD18C11307F00F6375B704544121460B
:10219000854E3D4F930F800293028004414EB398C9
:1021A000CE0033F715016392E802131726000117DA
:1021B0003313EF001343F3FFB376D3003317E80074
:1021C000D98E639DF701232A15010506E319C6FD83
:1021D00054C18280E39457FA10C94DB7E39757FE74
:1021E00023281501DDB708456D8D3335A0008280A9
:1021F000371702405C439146B18B6385D700A146F7
:102200006385D706B7177A00938707201CC1371656
:1022100002405C4297E6FF1F938606EE9183BD8BDA
:10222000B69703C707001C41B3D7E7005CC158420B
:1022300021831D8B36970347070033D7E70018C566
:1022400058422D831D8BBA9603C7060093864181A1
:10225000B3D7E7005CC5584239830D8B36970347E7
:102260000700B3D7E7021CC982805C435843C166AC
:10227000C983758FB7F6FF1F83A6C670BD8B89070C
:102280001396160163480600C54601466392D702BD
:10229000C94739A88946638FD702BD46638ED702E6
:1022A000C146638ED702C54601466393D700C14736
:1022B0001DEF3747024003270780418B05C73717BB
:1022C0007A0013070720B307F7021CC129D21C416B
:1022D00085832DBF01466DBF0546B547D1BF014679
:1022E000BD47F9B737173D0013070790E9BFB7158A
:1022F0000240D8559316F700D85563DF06041183C2
:102300003D8B9306170037177A00130707203357C2
:10231000D70218C1D455A182BD8A8DE295463307F4
:10232000D702058318C137170240585714413D8B17
:10233000050733D7E60218C1184171B78545639484
:10234000B600E546E9BFBD456396B600D146338782
:10235000E602C9BF8906E5BF3D8B93061700371714
:102360007A00130707203357D702F1B799C53717FB
:1023700002405C4B5D8D48CB8280B7170240D84B42
:102380001345F5FF798DC8CB828099C53717024078
:102390001C4F5D8D08CF8280B7170240984F1345C0
:1023A000F5FF798D88CF828099C5371702405C4749
:1023B0005D8D48C78280B7170240D8471345F5FFA7
:1023C000798DC8C78280B7170240D857B70600F981
:1023D000FD16758FD8D7D8576205598DC8D782801A
:1023E000B7170240D857B70600F8FD16758FD8D733
:1023F000D8576E05598DC8D78280B7170240D85775
:10240000B70600D0FD16758FD8D7D8577205598DED
:10241000C8D7828009C9371702405C57B706004009
:10242000D58F5CD78280B7160240DC56370700C0D4
:102430007D17F98FDCD68280371702405C577E0506
:10244000860785835CD75C575D8D48D7828083562D
:102450000501F577FD17F58F83D66500397122DC0C
:1024600006DED58F03D7C5002318F5008356C500B7
:10247000FD779387379FF58F83D645002A842EC634
:10248000D58F83D68500D58F83D6A500D58F23160B
:10249000F50083574501C207C18393F7F7CFD98F62
:1024A000231AF5006808A933B747014093870780CE
:1024B000B2456310F404A2576547B387E702984119
:1024C00093064006F2500A07B3D7E70233D7D70284
:1024D000B3F7D7021207920793872703B3D7D70220
:1024E000BD8BD98FC207C1832314F40062542161CC
:1024F00082809257D1B781C98357C5000967D98FA8
:102500002316F50082800357C500F977FD17F98F70
:10251000C5BF93F5F51F2312B50082800355050052
:102520006D8D3335A000828001A097E1FF1F93815C
:10253000E143176100201301E1AC171500001305FA
:10254000657997E5FF1F9385E5AB1386018363FAF1
:10255000C5008322050023A0550011059105E3EA7B
:10256000C5FE1385018397F5FF1F9385E5E063772B
:10257000B500232005001105E36DB5FEFD42739003
:1025800002BCAD4273904280B76200009382820821
:102590007390023097E2FFFF938202A793E232002A
:1025A00073905230EFF0EFE797F2FFFF9382C25C37
:1025B000739012347300203001476314E600014524
:1025C0008280B307E5000507B386E50083C70700EF
:1025D00083C6F6FFE383D7FE3385D7408280B3C737
:1025E000A5008D8B3307C50081E78D4763EEC700DB
:1025F000AA876370E50A83C6050085078505A38F52
:10260000D7FEE3EAE7FE828093763500AA8791CA77
:1026100083C6050085078505A38FD7FE93F637008F
:10262000FDB79376C7FF138606FE63F0C70683A344
:10263000050083A2450083AF850003AFC50083AECC
:10264000050103AE450103A3850183A8C501938558
:10265000450223A0770003A8C5FF23A2570023A4A7
:10266000F70123A6E70123A8D70123AAC70123ACBA
:10267000670023AE17019387470223AE07FF75B7A4
:1026800090419107910523AEC7FEE3EBD7FEE3E44B
:10269000E7F6828039713EDA2ED232D436D63AD875
:1026A00042DC46DE9387818122CC804326CA06CE57
:1026B000AA8409C41C4C99E3228515230C445410A8
:1026C0002686228536C6EF007016F2406244D24458
:1026D00021618280011126CA4AC806CE22CC4EC68C
:1026E00052C4AA842E8901C51C4D91E3CD299C4C6E
:1026F000804499E32685E521971700009387C75505
:10270000631CF402C0408357C400A18BB1C71C48AE
:10271000A1C7FD59294A1C4483450900FD17B1E9A9
:102720001CC463DE07062286A94526857120FD5755
:102730006308F502294535A0971700009387C75312
:102740006314F4008044C1B7971700009387C74E05
:10275000E31BF4FAC04445BFA2852685312A55D92A
:102760007D55F2406244D2444249B249224A056151
:1027700082801CC4050963D70700184C63CBE700AF
:10278000638945011C401387170018C02380B700D8
:1027900059B7228626850D20E31F35F7D1B71C4097
:1027A0001387170018C029472380E70061B7938774
:1027B0008181AA85884339BF011122CC26CA4AC823
:1027C00006CE4EC6AA842E89328401C51C4D91E3E3
:1027D000392197170000938727486319F406C040F2
:1027E0001C4C1CC48357C400A18BC9C31C48BDCF5B
:1027F0001C4808409379F90F1379F90F1D8D5C4837
:102800006346F500A2852685652C2DE51C4405054B
:10281000FD171CC41C401387170018C02380370104
:102820005C486389A7008357C400858B81CBA94787
:102830006316F900A285268561240DEDF2406244FD
:102840004A85D2444249B249056182809717000007
:10285000938787426314F400804459B797170000A8
:102860009387873DE31EF4F6C0449DBFA28526856D
:1028700021203DDD7D59D9B741119387818126C241
:10288000844322C44AC006C62A892E8489C49C4C2B
:1028900099E32685A926971700009387E73B631CD9
:1028A000F402C0400317C40093170701C18393F6D5
:1028B0008700B5EE93F607019DEEA5472320F900AA
:1028C000136707042316E4007D55B2402244924466
:1028D000024941018280971700009387E73963140A
:1028E000F4008044C1B7971700009387E734E31BD7
:1028F000F4FAC04445BF918B8DC74C5889C99307E2
:1029000044046384F5004A85352B232A0402835747
:10291000C4002322040093F7B7FD2316F4001C48DB
:102920001CC08357C40093E787002316F4001C489B
:1029300081EF8357C4001307002093F707286385AE
:10294000E700A2854A8585218357C40013F7170045
:1029500005C75C4823240400B307F0401CCC1C4886
:102960000145A5F78317C40013F7070839DF93E77C
:1029700007042316F40089BF898B014791E3584867
:1029800018C4F1BF83D7C500011122CC26CA06CED8
:102990004AC84EC613F78700AA842E8471EFD84127
:1029A000634DE000B841634AE0000145F2406244F3
:1029B000D2444249B2490561828058547DD703A967
:1029C00004009396370123A0040063DD06067048D7
:1029D0008357C400918B99C75C401D8E5C5899C386
:1029E0003C401D8E5C540C50814626858297FD57D5
:1029F0000357C400631DF5009440F54763E8D7060C
:102A0000B70740208507B3D7D700858BA5C31C48DF
:102A1000232204001CC09317370163D80700FD5719
:102A20006314F5009C4091E368C84C5823A024012E
:102A3000ADDD930744046384F50026852121232A14
:102A40000402A5B70C500146854626850297FD571E
:102A50002A86E31FF5F69C40A5DF75476385E700EE
:102A600059476394E70423A0240181B7136707043F
:102A70002316E4007D551DBF83A90501E38709F2F4
:102A800003A905008D8B23A0350133093941014786
:102A900091E3D84918C4E35A20F11C540C50CA865B
:102AA0004E86268582976349A0008357C40093E72A
:102AB00007042316F4007DBFAA993309A940E1BF9A
:102AC0009C49B9CF011122CC06CE2A8411C51C4DD8
:102AD00081E72EC62922B245971700009387C717B2
:102AE000639BF5004C408397C50095C722856244DF
:102AF000F240056141BD971700009387E717639483
:102B0000F5000C44CDB7971700009387E712E39CBC
:102B1000F5FC4C44C9BFF240624401450561828026
:102B200001458280411122C406C62A842316B500BD
:102B30002317C500232005002322050023240500B8
:102B40002322050623280500232A0500232C05003F
:102B5000214681451305C505EFD08FE69717000084
:102B60009387E7B45CD097170000938747B71CD4CE
:102B700097170000938787BB5CD497170000938753
:102B800047BE00D01CD8B240224441018280970544
:102B90000000938525F3A9A2411126C213068006E1
:102BA0009384F5FFB384C4024AC02E8922C406C6AA
:102BB00093854407252E2A8401CD23200500232256
:102BC0002501310508C4138684068145EFD04FDF07
:102BD0002285B240224492440249410182801C4D28
:102BE000ADE3411106C622C497070000938767FA38
:102BF0001CD5938781829C43232405042326050446
:102C0000232805046314F50085471CCD2A841D285C
:102C100048C02285052808C422852D2048C4484084
:102C200001469145013708440546A545E53D484420
:102C30000946C945C53D85471CCCB24022444101E7
:102C40008280828041119387818226C284434AC058
:102C500006C69C4C22C42A8999E326854937938469
:102C600084048044DC40FD1763D607009C40B9CF44
:102C70008440C5BF0317C40039E7C1778507232205
:102C800004062320040023220400232404005CC43F
:102C900023280400232A0400232C04002146814514
:102CA0001305C405EFD0CFD1232A0402232C04023C
:102CB00023240404232604042285B240224492449F
:102CC0000249410182801304840671BF91454A85FF
:102CD000E13588C051FDB1472320F9000144E9BF27
:102CE000797122D44AD052CC56CA5AC85EC606D68A
:102CF00026D24ECE2A8AAE8A130485040149054B9A
:102D0000FD5B09ECB25022544A8592540259F249B3
:102D1000624AD24A424BB24B4561828004448329C5
:102D20004400FD1963D409000040E1BF83D7C4000B
:102D3000637BFB008397E40063877701A685528558
:102D4000829A3369A90093848406E1BF1971A6DAD7
:102D5000AE848395E500A2DC86DE328463DC050068
:102D600083D7C40023A0060093F7070885E79307DD
:102D700000401DA0300836C6EF003025B246E341C2
:102D800005FE7247BD67F98F7977BA9793B7170039
:102D90009CC2F1BF930700041CC0F6506654D65481
:102DA00001450961828083D7C500011122CC06CE7E
:102DB00026CA4AC8898B2E8489CF930774041CC005
:102DC0001CC885475CC8F2406244D2444249056150
:102DD000828074003000AA84953FA2452A89268506
:102DE000312201ED8317C40013F7072069FFF19B1F
:102DF00093E727002316F400C9B7970700009387CD
:102E000047D99CD48357C40008C008C893E7070873
:102E10002316F400A2475CC8B24791CF8315E400A3
:102E20002685EF00B01D01C98357C400F19B93E7CD
:102E300017002316F4008357C4003369F9002316E2
:102E4000240151B7DDC183A7C5FF411122C406C6C5
:102E500026C21384C5FF63D307003E94AA84EF0003
:102E6000D021938781879C4381EF2322040023ACE8
:102E700081862244B2402685924441016F00102091
:102E8000637EF40014403307D4006396E700984350
:102E9000DC43369718C05CC0D9BFBA87D84319C382
:102EA000E37DE4FE94433386D700631F8600104021
:102EB000B29694C33386D700E31DC7FA1043584334
:102EC000B29694C3D8C375B76375C400B1479CC0AC
:102ED0004DB71040B306C4006316D70014435843DF
:102EE000B29614C058C0C0C369B78280011126CA07
:102EF00093843500F19806CE22CC4AC84EC6A10470
:102F0000B14763F3F404B14463E2B4042A89EF00E7
:102F1000D0169387818798433A8439E09387C18795
:102F20009C4391E781454A85812F23AEA186A685E2
:102F30004A859927FD5963193507B1472320F900C0
:102F40004A85EF00B01329A0E3D004FCB1471CC1AF
:102F50000145F2406244D2444249B249056182804F
:102F60001C40858F63CF0702AD4663F6F6001CC098
:102F70003E9404C031A05C406313870223ACF18609
:102F80004A85EF00B00F1305B40093074400619920
:102F90003307F5405DDF3A94898F1CC05DBF5CC389
:102FA000C5B72287404095BF130435007198E302EE
:102FB00085FCB305A4404A85C125E31C35FBB5BF9C
:102FC0001C46FD171CC663DA0700184E63C5E700F0
:102FD000A9476394F5006FF02FFE1C422E851387DE
:102FE000170018C22380B7008280011122CC26CAA4
:102FF0004AC84EC652C406CE2A89AE893284B3046A
:10300000D6007D5A63149400014509A88345040045
:103010004E864A8575370504E31645FFF240624443
:10302000D2444249B249224A05618280357122CD9B
:1030300026CB4AC94EC706CF52C556C35AC1DEDE9B
:10304000E2DCE6DAAA89AE843289368401C51C4DF9
:1030500091E3713697170000938707C0639BF40CC8
:1030600083A4490083D7C400A18BF5C79C48E5C75A
:1030700093070002A304F1029307000302D2230581
:10308000F10222C6930B5002971A0000938ACAC01D
:10309000054C294B4A848347040099C36390770FFA
:1030A000B30C2441638D0C00E6864A86A6854E85C6
:1030B0002D3FFD576306F51E9256E69636D283479E
:1030C0000400638F071CFD571309140002C802CEC9
:1030D0003ECA02CCA309010482D4834509001546E7
:1030E0005685BD2F13041900C24759E913F707018C
:1030F00009C713070002A309E10413F7870009C7F2
:103100001307B002A309E104834609001307A002D4
:103110006380E608F2474A84814625460347040057
:1031200093051400130707FD6379E60AB5CA3ECE7E
:1031300085A897170000938727B46395F40083A4AC
:1031400089000DB797170000938707AFE39CF4F051
:1031500083A4C90001BFA6854E85EFF0EFF109D920
:103160007D55FA406A44DA444A49BA492A4A9A4A99
:103170000A4BF65B665CD65C0D618280050421BF5C
:10318000330555413315AC00C98F3EC82289B1B70C
:10319000324793064700184336C6634907023ACEC2
:1031A000034704009307E002631FF704034714007A
:1031B0009307A002631BF702B24709041387470075
:1031C0009C433AC663C107023ECA35A83307E040B4
:1031D00093E727003ACE3EC8E1B7B3876703854639
:1031E0002E84BA9725BFFD57C5B7050402CA81468C
:1031F000814725460347040093051400130707FD84
:103200006376E606F1F2834504000D4617150000CB
:10321000130505A9B12511CD97170000938747A87D
:103220001D8D93070004B397A700424505045D8DEB
:103230002AC883450400194617150000130585A602
:10324000130914002304B102212D3DC197D7FFFFBC
:10325000938747DB95E74247B2471377071009CFBB
:1032600091073EC69257D2973ED22DB5B3876703DA
:1032700085462E84BA97BDBF9D07E19BA107D5B7B0
:10328000780097060000938686D626860C084E8521
:1032900097000000E7000000FD572A8AE314F5FCC0
:1032A00083D7C40093F70704E39C07EA125555BD82
:1032B000780097060000938686D326860C084E85F4
:1032C000012AD9BF797156CA9C49BA8A984522D435
:1032D00026D24ECE52CC06D64AD05AC85EC6AA894D
:1032E0002E84B284368A63D3E700BA879CC0034732
:1032F000340419C385079CC01C4093F7070281C79B
:103300009C4089079CC00329040013796900631A53
:103310000900130B9401FD5B5C449840998F634C4A
:10332000F9041C408346340493F70702B336D000F7
:10333000A5EB13063404D2854E85829AFD576303AC
:10334000F5041C4011469840998B5444814463977E
:10335000C700B384E64063D3040081441C4418488A
:103360006354F700998FBE94014969047D5B6398AB
:103370002405014509A885465A86D2854E85829A3C
:10338000631E75017D55B250225492540259F24980
:10339000624AD24A424BB24B456182800509ADBFB9
:1033A0003307D40013060003A301C70403475404E2
:1033B00093871600A2978906A381E7049DBF8546DF
:1033C0002286D2854E85829AE30E65FB050945B7B4
:1033D000797122D426D24AD04ECE06D652CC56CAC5
:1033E0005AC8B68983C68501930790063289AA8494
:1033F0002E8413863504638DF60263E2D7069307A5
:1034000080056387F61863EDD70063800622930773
:103410003004638EF60A930A24042301D404C9A05D
:10342000930730066385F60A93074006E395F6FE98
:103430001C40084393F6070893054500C5C61C4188
:103440000CC363D807001307D002B307F040A301F1
:10345000E404971600009386668529476DA89307B4
:1034600000076383F61663E5D7029307E006638AD5
:10347000F6189307F006E390F6FA0C401C4313F895
:103480000508138547006307080608C39C438DA8F9
:1034900093075007E383F6FE93078007638AF612CB
:1034A00093073007E399F6F61C43D0418145938694
:1034B000470014C383AA070056855D2601C533055E
:1034C000554148C05C401CC8A301040471A81C43BA
:1034D000930A2404938647009C4314C32301F404F5
:1034E0008547D5B793F607041C410CC3B9DAC20768
:1034F000C18781BF93F5050408C3C9D983D70700E5
:103500001307F0066387E60E970600009386067A97
:103510002947A30104044C400CC463C505000840BE
:103520006D9908C099E3B28A91CDB28AB3F5E702EA
:10353000FD1AB69583C505002380BA00B3D5E7020E
:1035400063FFE70AA147631EF7001C40858B91CB00
:1035500058401C4863C7E70093070003A38FFAFE97
:10356000FD1A3306564110C84E87CA867000A285E0
:103570002685893B7D5A631E450B7D55B2502254EA
:1035800092540259F249624AD24A424B45618280C2
:10359000A382D50497060000938646710C40084329
:1035A00013F805081C411105630D080208C313F741
:1035B000150001C793E505020CC04147B9FB0C405B
:1035C00093F5F5FD0CC0B1B79C4193E707029CC190
:1035D00093078007A302F404970600009386466EC3
:1035E00075BF13F8050408C3E30308FCC207C183D1
:1035F0007DBF970600009386666B214719BFAE8793
:1036000035B794411C43CC4913F80608138547008D
:103610006306080008C39C438CC301A808C393F643
:1036200006049C43F5DA2390B70023280400B28AED
:1036300025BF14485686CA8526858299E30F45F32F
:103640001C40898B8DE7B2474844E359F5F23E852B
:1036500035B785465686CA8526858299E30F65F17A
:10366000050A5C443247998FE345FAFEE9BF014AF7
:10367000930A94017D5BF5B7411122C42A842E85FB
:1036800097E7FF1F23A807CE06C6EFE09F88FD57E8
:103690006319F50097E7FF1F9387C7CD9C4391C33C
:1036A0001CC0B240224441018280411122C42E84B8
:1036B0008395E50006C6E122634905007C48AA9788
:1036C0007CC8B2402244410182808357C4007D7788
:1036D0007D17F98F2316F400EDB783D7C5000111CC
:1036E00022CC26CA4AC84EC606CE93F70710AA8433
:1036F0002E843289B68991C78395E50089460146B3
:1037000035228357C4007D777D17F98F2316F40087
:103710008315E4006244F240CE864A86B2494249AB
:103720002685D24405613DA8411122C42E8483958B
:10373000E50006C6E528FD570357C400631BF500E6
:10374000FD77FD17F98F2316F400B24022444101A2
:1037500082808567D98F2316F40068C8FDB78395EA
:10376000E50025A8411122C42A842E85B28536861B
:1037700097E7FF1F23A007C006C6EFE0CFF4FD5771
:103780006319F50097E7FF1F9387C7BE9C4391C35A
:103790001CC0B240224441018280411122C42A84CB
:1037A0002E8597E7FF1F23A707BC06C61922FD57E2
:1037B0006319F50097E7FF1F9387C7BB9C4391C32D
:1037C0001CC0B240224441018280411122C42A849B
:1037D0002E85B28597E7FF1F23AE07B806C6D52012
:1037E000FD576319F50097E7FF1F9387A7B89C4320
:1037F00091C31CC0B240224441018280411122C4C5
:103800002A842E8597E7FF1F23A607B606C6D12078
:10381000FD576319F50097E7FF1F9387A7B59C43F2
:1038200091C31CC0B240224441018280411122C494
:103830002A842E85B285368697E7FF1F23AC07B210
:1038400006C64520FD576319F50097E7FF1F9387CC
:1038500067B29C4391C31CC0B240224441018280A4
:1038600093F5F50F2A966314C500014582808347BE
:103870000500E38DB7FE0505FDB78280828041110A
:1038800022C42A842E85B285368697E7FF1F23A39C
:1038900007AE06C6B928FD576319F50097E7FF1F65
:1038A000938747AD9C4391C31CC0B2402244410161
:1038B00082809307800517E7FF1F232DF7AA7D5508
:1038C00082809307800517E7FF1F2325F7AA7D5500
:1038D00082809307800517E7FF1F232DF7A8014576
:1038E00082809307800517E7FF1F2325F7A87D55E2
:1038F00082809307800517E7FF1F232DF7A67D55CC
:1039000082800000000E0000000000080000003F60
:10391000000002000B0000080000003F0000020051
:103920000000000800000040020002006A756D708F
:10393000204150500D0000002A2A2A207566325F6F
:10394000626F6172645F6466755F636F6D706C65F2
:103950007465202A2A2A0D0A0D0000007566325F60
:10396000626F6172645F666C617368204572726F2A
:103970007220416464726573732030782530387822
:103980000D0A00007566325F666C617368204164E1
:103990006472203078253038780D0A0052DCFFFF41
:1039A000FEDAFFFF14D9FFFF72DBFFFF14D9FFFF20
:1039B000C8DAFFFF8AD8FFFF14D9FFFFD2DAFFFF72
:1039C000EEDAFFFF48DCFFFF0AD8FFFF7ED8FFFFDB
:1039D000FCD8FFFF7ED9FFFF9ED9FFFF9ED9FFFFD6
:1039E000F6D9FFFF0CDAFFFFEB3C9055463220552D
:1039F00046322000020101000240000000F80201EE
:103A000001000100000000000901010080002942BE
:103A1000004200534841525020424F4F540046410B
:103A200054313620202000003C21646F637479708B
:103A3000652068746D6C3E0A3C68746D6C3E3C6237
:103A40006F64793E3C7363726970743E0A6C6F6395
:103A50006174696F6E2E7265706C6163652822688F
:103A6000747470733A2F2F676F6F676C652E636F76
:103A70006D2F22293B0A3C2F7363726970743E3CA0
:103A80002F626F64793E3C2F68746D6C3E0A0000B3
:103A900055463220426F6F746C6F616465722030DE
:103AA0002E302E320D0A4D6F64656C3A2043483338
:103AB0003256205546320D0A426F6172642D4944D8
:103AC0003A2043483332563330370D0A4461746527
:103AD0003A2041707220323320323032360D0A0DD6
:103AE0000A44726F70205546322066696C652074F6
:103AF0006F20666C61736820746865206669726DFA
:103B0000776172650000000053797374656D436CD2
:103B10006B3A25640D0A00004368697049443A25F0
:103B20003038780D0A00000055534248532043486E
:103B3000333220554469736B0D0A53746F72616799
:103B400065204D656469756D3A20494E5445524E65
:103B5000414C20464C415348200D0000466C617397
:103B6000685F536563746F725F436F756E743A205C
:103B70002534640D0A000000466C6173685F53656C
:103B800063746F725F53697A653A202534640D0A55
:103B90000000000009022000010100C032090400F9
:103BA00000020806500007058202400000070503D6
:103BB0000240000009022000010100C03209040097
:103BC00000020806500007058202000200070503F4
:103BD000020002001201000200000040861A10FEDE
:103BE00001000102000100000E037700630068007D
:103BF0002E0063006E0000001603430048003300EF
:103C00003000780055004400690073006B0000002C
:103C10000A060002FFFFFF4001000000160330000B
:103C200031003200330034003500360037003800F0
:103C3000390000000000000000000000000000004B
:103C40000000000000000000000000000000000074
:103C50000000000000000000000000000000000064
:103C60000000000000000000000000000000000054
:103C70000000000000000000000000000000000044
:103C80000000000000000000000000000000000034
:103C900000000000232D302B20000000686C4C0039
:103CA0006566674546470000303132333435363774
:103CB0003839414243444546000000003031323338
:103CC0003435363738396162636465660000000058
:103CD000008002021F00000053686172704B422096
:103CE0005546322020202020202020202020202067
:103CF000322E4430000000000000000000AAAAAAF2
:103D0000AAAAAAAAAAEEEEEEEEEEEEEEEEFEFFFFF5
:103D1000FFFFFFFFFFFFFFFFFF7FBFDFEFF7FBFDB1
:103D2000FC7EBFDFEFF7FBFD7E0000005245414403
:103D30004D45202054585400903A00007400000073
:103D40000000000056454E444F52202048544D007C
:103D5000283A0000660000000000000055504C4F5B
:103D600041442020554632000000000000000000C1
:103D70000000000000000000000000000102030439
:103D80000607080909070000000000000000000005
:103D90000000000000000000000000000000000023
:103DA0000000000009070000000000000000000003
:103DB0000000000000000000000000000000000003
:103DC00000000000000000000102030401020304DF
:103DD0000607080900000000543C0000743C000085
:103DE000343C000000000000000000000000000063
:103DF00000000000000000000000000000000000C3
:103E000000000000000000000000000000000000B2
:103E100000000000000000000000000000000000A2
:103E20000000000000000000000000000000000092
:103E3000000000000000000000020000FFFFFFFF84
:103E40000100000000D8B805741300200204060821
:103E5000040100200000003F0000020004030904E8
:083E6000040100200000000035
:00000001FF
